:020000040000FA
:10000000680400206D02000071020000730200000D
:100010007502000077020000790200000000000075
:100020000000000000000000000000007B02000053
:100030007D020000000000007F020000810200003D
:100040008302000083020000830200000905000013
:10005000830200008302000083020000830200008C
:10006000830200008302000083020000830200007C
:10007000830200008302000083020000830200006C
:10008000830200008302000083020000830200005C
:10009000830200008302000083020000830200004C
:1000A000830200008302000083020000830200003C
:1000B000830200008302000083020000830200002C
:1000C000830200008302000083020000830200001C
:1000D000830200008302000083020000830200000C
:1000E00083020000830200008302000083020000FC
:1000F00083020000830200008302000083020000EC
:1001000083020000830200008302000083020000DB
:1001100083020000830200008302000083020000CB
:1001200083020000830200008302000083020000BB
:1001300083020000830200008302000083020000AB
:1001400000000000000000000000000000000000AF
:10015000830200008302000083020000830200008B
:10016000000000000000000000000000000000008F
:10017000000000000000000000000000000000007F
:10018000000000000000000000000000000000006F
:10019000000000000000000000000000000000005F
:1001A000000000000000000000000000000000004F
:1001B000830200008302000083020000830200002B
:1001C000830200008302000083020000830200001B
:1001D000830200008302000083020000830200000B
:1001E00083020000830200008302000083020000FB
:1001F00083020000830200008302000083020000EB
:10020000830200008302000083020000000000005F
:1002100083020000830200008302000083020000CA
:1002200083020000830200008302000083020000BA
:1002300083020000830200008302000083020000AA
:10024000830200008302000083020000830200009A
:10025000830200008302000083020000830200008A
:1002600083020000830200008302000000F00AB84D
:10027000FEE7FEE7FEE7FEE7FEE7FEE7FEE7FEE756
:10028000FEE7FEE700F002F800F042F814A696E858
:10029000000CB244B344DA4501D100F039F8BAE8B1
:1002A0000F000FA696E83000A5EB040504EB060747
:1002B000AAEB0704A7F101074FEA15154FEA34141A
:1002C000A4F10104AC4201D300F022F813F0010FB5
:1002D00018BFFB1A43F0010300F001F8DBE71847F1
:1002E0006006000070060000704700000023002434
:1002F00000250026103A28BF78C1FBD8520728BF36
:1003000030C148BF0B6070471FB51FBD10B510BD91
:1003100000F029F81146FFF7F7FF00F0B9FA00F0F6
:1003200047F803B4FFF7F2FF03BC00F04FF80000FA
:1003300072B6704762B67047EFF3108072B67047BE
:1003400080F31088704730BF704702480249014A65
:10035000024B7047680000206804002068000020FD
:10036000704770477047754600F02CF8AE460500A0
:100370006946534620F00700854618B020B5FFF7C0
:10038000E4FFBDE820404FF000064FF000074FF0BB
:1003900000084FF0000BAC46ACE8C009ACE8C0095F
:1003A000ACE8C009ACE8C00921F007018D467047F0
:1003B00010B50446AFF300802046BDE81040FFF7BB
:1003C000B0BF00000048704700000020014918201D
:1003D000ABBEFEE7260002007047000081B04EF27F
:1003E0001401CEF2000142F20040C0F2F4000860B5
:1003F0004EF21801CEF20001002008604EF210010A
:10040000CEF20001086840F001000860FFE74EF2FC
:100410001000CEF200000068C003002801D4FFE7FE
:10042000F5E74EF21001CEF20001086820F001005D
:10043000086000200090FFE70098042861DCFFE7D7
:1004400045F20031C4F20001086840F0C0000860C5
:100450004EF21401CEF2000145F6C05008604EF293
:100460001801CEF20001002008604EF21001CEF219
:100470000001086840F001000860FFE74EF210003C
:10048000CEF200000068C003002801D4FFE7F5E7C2
:100490004EF21001CEF20001086820F00100086061
:1004A00045F20032C4F20002106820F0C000106073
:1004B0004EF21402CEF200024FF4FA5010604EF2E7
:1004C0001802CEF2000200201060086840F001001F
:1004D0000860FFE74EF21000CEF200000068C00393
:1004E000002801D4FFE7F5E74EF21001CEF200013B
:1004F000086820F001000860FFE7009801300090D4
:100500009AE701B07047000081B000200090FFE73B
:10051000009847F2FF01C0F20201884205D8FFE7C8
:10052000FFE7009801300090F2E747F21440C4F270
:10053000000000684006002817D5FFE747F21C417D
:10054000C4F200014020086040F26002C2F20002E2
:100550001178012020EA0101117040F26101C2F21C
:1005600000010A7890430870FFE701B0704700006F
:100570004EF20861C4F20F01086840F020000860E4
:10058000FFE74EF60820C4F20F00006800F02000DC
:10059000202801D0FFE7F4E745F20041C4F2020150
:1005A000086840F00A00086045F22041C4F20201E8
:1005B000086820F00A00086045F21C51C4F20201EC
:1005C000086840F00A00086045F22851C4F20201B0
:1005D000086820F00A00086045F22C51C4F20201BC
:1005E00008684FF2F00290430860704781B04EF205
:1005F0001001CEF20001086820F001000860002020
:100600000090FFE70098092800F38E80FFE745F28D
:100610000031C4F20001086840F0C00008604EF2EA
:100620001401CEF200014FF4FA5008604EF21801A6
:10063000CEF20001002008604EF21001CEF200015F
:10064000086840F001000860FFE74EF21000CEF2AB
:1006500000000068C003002801D4FFE7F5E74EF270
:100660001001CEF20001086820F00100086045F298
:100670000032C4F20002106820F0400010604EF218
:100680001402CEF200024FF4FA4010604EF218024B
:10069000CEF2000200201060086840F001000860FF
:1006A000FFE74EF21000CEF200000068C003002801
:1006B00001D4FFE7F5E74EF21001CEF20001086821
:1006C00020F00100086045F20032C4F20002106818
:1006D00020F0800010604EF21402CEF200024FF4BF
:1006E0007A5010604EF21802CEF200020020106024
:1006F000086840F001000860FFE74EF21000CEF2FB
:1007000000000068C003002801D4FFE7F5E74EF2BF
:100710001001CEF20001086820F001000860FFE738
:100720000098013000906DE701B070474EF208610B
:10073000C4F20F01086840F008000860FFE74EF6B9
:100740000820C4F20F00006800F00800082801D05B
:10075000FFE7F4E747F20041C4F20001086820F027
:100760004000086047F22041C4F20001086820F010
:100770004000086047F21C51C4F20001086840F0D4
:100780004000086047F22851C4F20001086820F0D8
:100790004000086047F22C51C4F20001086820F0C4
:1007A0004000086047F20441C4F20001086820F0EC
:1007B0004000086047F20841C4F20001086840F0B8
:1007C0004000086047F21041C4F20001086840F0A0
:1007D000400008604EF20041CEF20001086803229A
:1007E00062F35F7008604EF20011CEF200010868FB
:1007F00040F00800086070474EF20861C4F20F0133
:10080000086840F002000860FFE74EF20860C4F29A
:100810000F00006800F00200022801D0FFE7F4E7B3
:1008200045F22041C4F20001086820F0C0000860D1
:1008300045F22C51C4F20001086820F07F400860A6
:1008400045F20041C4F20001086840F0C0000860B1
:1008500045F22851C4F20001086820F0C000086089
:1008600045F21C51C4F20001086840F0C000086065
:10087000704700004EF21001CEF20001086820F02F
:1008800001000860086840F004000860704700003C
:1008900080B584B0002001900390FFF749FDFFF779
:1008A00045FFFFF7A9FFFFF763FEFFF7E3FFFFF741
:1008B00041FD019840F26101C2F20001087045F269
:1008C0002802C4F202020821116040F26001C2F263
:1008D00000010870FFE745F22801C4F20201082078
:1008E0000860FFF77BFDFFE740F26000C2F2000006
:1008F0000078C00718B9FFE7FFF725FDF4E745F2D8
:100900002801C4F2020102200860FFF76FFEFFE732
:1009100040F26000C2F200000078C00718B1FFE7A3
:10092000FFF711FDF4E700200290FFE70298FE2890
:1009300005DCFFE7FFE7029801300290F6E7CAE71F
:10094000500900000000002068040000EC020000D4
:040000050000026D88
:00000001FF
