:020000040000FA
:10000000700400206D020000710200007302000005
:100010007502000077020000790200000000000075
:100020000000000000000000000000007B02000053
:100030007D020000000000007F0200005D0600005D
:1000400083020000830200008302000041040000DC
:10005000830200008302000083020000830200008C
:10006000830200008302000083020000830200007C
:10007000830200008302000083020000830200006C
:10008000830200008302000083020000830200005C
:10009000830200008302000083020000830200004C
:1000A000830200008302000083020000830200003C
:1000B000830200008302000083020000830200002C
:1000C000830200008302000083020000830200001C
:1000D000830200008302000083020000830200000C
:1000E00083020000830200008302000083020000FC
:1000F00083020000830200008302000083020000EC
:1001000083020000830200008302000083020000DB
:1001100083020000830200008302000083020000CB
:1001200083020000830200008302000083020000BB
:1001300083020000830200008302000083020000AB
:1001400000000000000000000000000000000000AF
:10015000830200008302000083020000830200008B
:10016000000000000000000000000000000000008F
:10017000000000000000000000000000000000007F
:10018000000000000000000000000000000000006F
:10019000000000000000000000000000000000005F
:1001A000000000000000000000000000000000004F
:1001B000830200008302000083020000830200002B
:1001C000830200008302000083020000830200001B
:1001D000830200008302000083020000830200000B
:1001E00083020000830200008302000083020000FB
:1001F00083020000830200008302000083020000EB
:10020000830200008302000083020000000000005F
:1002100083020000830200008302000083020000CA
:1002200083020000830200008302000083020000BA
:1002300083020000830200008302000083020000AA
:10024000830200008302000083020000830200009A
:10025000830200008302000083020000830200008A
:1002600083020000830200008302000000F00AB84D
:10027000FEE7FEE7FEE7FEE7FEE7FEE7FEE7FEE756
:10028000FEE7FEE700F002F800F042F814A696E858
:10029000000CB244B344DA4501D100F039F8BAE8B1
:1002A0000F000FA696E83000A5EB040504EB060747
:1002B000AAEB0704A7F101074FEA15154FEA34141A
:1002C000A4F10104AC4201D300F022F813F0010FB5
:1002D00018BFFB1A43F0010300F001F8DBE71847F1
:1002E000C0040000D0040000704700000023002478
:1002F00000250026103A28BF78C1FBD8520728BF36
:1003000030C148BF0B6070471FB51FBD10B510BD91
:1003100000F029F81146FFF7F7FF00F0F1F900F0BF
:1003200047F803B4FFF7F2FF03BC00F04FF80000FA
:1003300072B6704762B67047EFF3108072B67047BE
:1003400080F31088704730BF704702480249014A65
:10035000024B7047700000207004002070000020E5
:10036000704770477047754600F02CF8AE460500A0
:100370006946534620F00700854618B020B5FFF7C0
:10038000E4FFBDE820404FF000064FF000074FF0BB
:1003900000084FF0000BAC46ACE8C009ACE8C0095F
:1003A000ACE8C009ACE8C00921F007018D467047F0
:1003B00010B50446AFF300802046BDE81040FFF7BB
:1003C000B0BF00000048704700000020014918201D
:1003D000ABBEFEE7260002007047000081B000902F
:1003E000009940F26000C2F20000016002684EF223
:1003F0000021C0F20401891A40F26402C2F2000234
:10040000116045F20012C4F20002116841F040018F
:10041000116000684EF21401CEF2000108604EF245
:100420001801CEF20001002008604EF21001CEF259
:100430000001086840F00100086001B0704700004A
:1004400081B000200090FFE7009847F2FF01C0F262
:100450000201884205D8FFE7FFE7009801300090CD
:10046000F2E747F21440C4F200000068400600289A
:100470000FD5FFE747F21C41C4F20001402008609D
:1004800040F26801C2F200010A780120904308702E
:10049000FFE701B0704700004EF20861C4F20F019F
:1004A000086840F020000860FFE74EF60820C4F21C
:1004B0000F00006800F02000202801D0FFE7F4E7DB
:1004C00045F20041C4F20201086840F00A000860E9
:1004D00045F22041C4F20201086820F00A000860D9
:1004E00045F21C51C4F20201086840F00A0008609D
:1004F00045F22851C4F20201086820F00A000860A1
:1005000045F22C51C4F2020108684FF2F002904308
:10051000086070474EF20861C4F20F01086840F0AD
:1005200008000860FFE74EF60820C4F20F000068DC
:1005300000F00800082801D0FFE7F4E747F2004187
:10054000C4F20001086820F04000086047F2204132
:10055000C4F20001086820F04000086047F21C5116
:10056000C4F20001086840F04000086047F22851DA
:10057000C4F20001086820F04000086047F22C51E6
:10058000C4F20001086820F04000086047F204410E
:10059000C4F20001086820F04000086047F20841FA
:1005A000C4F20001086840F04000086047F21041C2
:1005B000C4F20001086840F0400008604EF20041BB
:1005C000CEF200010868032262F35F7008604EF209
:1005D0000011CEF20001086840F008000860704782
:1005E0004EF20861C4F20F01086840F00200086092
:1005F000FFE74EF20860C4F20F00006800F002004E
:10060000022801D0FFE7F4E745F22041C4F20001DF
:10061000086820F04000086045F22C51C4F2000147
:10062000086820F07060086045F20041C4F20001E3
:10063000086840F04000086045F22851C4F200010B
:10064000086820F04000086045F21C51C4F2000127
:10065000086840F040000860704700004EF210014A
:10066000CEF20001086820F00100086045F2001099
:10067000C4F20000006860B1FFE740F26400C2F21B
:100680000000006801384EF21401CEF2000108604B
:100690000BE040F26000C2F20000006801384EF248
:1006A0001401CEF200010860FFE745F20011C4F228
:1006B0000001086880F0400008604EF21801CEF298
:1006C0000001002008604EF21001CEF2000108681F
:1006D00040F00100086070474EF21001CEF20001B8
:1006E000086820F0010008604EF62052CEF20002A9
:1006F00010681060086840F006000860704700004D
:1007000080B582B0002000900190FFF711FEFFF746
:1007100001FFFFF765FFFFF7BFFEFFF7DDFFFFF704
:1007200009FE009840F26801C2F20001087045F22B
:100730002801C4F202010820086049F64040FFF792
:100740004DFEFFE745F22801C4F2020108200860CF
:1007500049F64040FFF742FEFFE740F26800C2F270
:1007600000000078C00718B9FFE7FFF7ECFDF4E7D9
:1007700045F22801C4F20201022008604FF47A50C9
:10078000FFF72CFEFFE740F26800C2F2000000789D
:10079000C00718B1FFE7FFF7D6FDF4E7D2E7000086
:1007A000B00700000000002070040000EC02000010
:040000050000026D88
:00000001FF
