:020000040000FA
:10000000700400206D020000710200007302000005
:100010007502000077020000790200000000000075
:100020000000000000000000000000007B02000053
:100030007D020000000000007F0200003107000088
:10004000830200008302000083020000830200009C
:10005000830200008302000083020000830200008C
:10006000830200008302000083020000830200007C
:10007000830200008302000083020000830200006C
:10008000830200008302000083020000830200005C
:10009000830200008302000083020000830200004C
:1000A000830200008302000083020000830200003C
:1000B000830200008302000083020000830200002C
:1000C000830200008302000083020000830200001C
:1000D000830200008302000083020000830200000C
:1000E00083020000830200008302000083020000FC
:1000F00083020000830200008302000083020000EC
:1001000083020000830200008302000083020000DB
:1001100083020000830200008302000083020000CB
:1001200083020000830200008302000083020000BB
:1001300083020000830200008302000083020000AB
:1001400000000000000000000000000000000000AF
:10015000830200008302000083020000830200008B
:10016000000000000000000000000000000000008F
:10017000000000000000000000000000000000007F
:10018000000000000000000000000000000000006F
:10019000000000000000000000000000000000005F
:1001A000000000000000000000000000000000004F
:1001B000830200008302000083020000830200002B
:1001C000830200008302000083020000830200001B
:1001D000830200008302000083020000830200000B
:1001E00083020000830200008302000083020000FB
:1001F00083020000830200008302000083020000EB
:10020000830200008302000083020000000000005F
:1002100083020000830200008302000083020000CA
:1002200083020000830200008302000083020000BA
:1002300083020000830200008302000083020000AA
:10024000830200008302000083020000830200009A
:10025000830200008302000083020000830200008A
:1002600083020000830200008302000000F00AB84D
:10027000FEE7FEE7FEE7FEE7FEE7FEE7FEE7FEE756
:10028000FEE7FEE700F002F800F042F814A696E858
:10029000000CB244B344DA4501D100F039F8BAE8B1
:1002A0000F000FA696E83000A5EB040504EB060747
:1002B000AAEB0704A7F101074FEA15154FEA34141A
:1002C000A4F10104AC4201D300F022F813F0010FB5
:1002D00018BFFB1A43F0010300F001F8DBE71847F1
:1002E000FC0500000C0600007047000000230024FD
:1002F00000250026103A28BF78C1FBD8520728BF36
:1003000030C148BF0B6070471FB51FBD10B510BD91
:1003100000F029F81146FFF7F7FF00F075FA00F03A
:1003200047F803B4FFF7F2FF03BC00F04FF80000FA
:1003300072B6704762B67047EFF3108072B67047BE
:1003400080F31088704730BF704702480249014A65
:10035000024B7047700000207004002070000020E5
:10036000704770477047754600F02CF8AE460500A0
:100370006946534620F00700854618B020B5FFF7C0
:10038000E4FFBDE820404FF000064FF000074FF0BB
:1003900000084FF0000BAC46ACE8C009ACE8C0095F
:1003A000ACE8C009ACE8C00921F007018D467047F0
:1003B00010B50446AFF300802046BDE81040FFF7BB
:1003C000B0BF00000048704700000020014918201D
:1003D000ABBEFEE7260002007047000081B041F688
:1003E0006000C0F223000090FFE7009820B1FFE713
:1003F000009801380090F8E701B070474EF2140100
:10040000CEF2000143F67F6008604EF21801CEF292
:100410000001002008604EF21001CEF200010868D1
:1004200040F001000860FFE74EF21000CEF200003D
:100430000068C003002801D4FFE7F5E74EF2100181
:10044000CEF20001086820F001000860704700004B
:100450004EF21401CEF200010F2008604EF2180196
:10046000CEF20001002008604EF21001CEF2000131
:10047000086840F001000860FFE74EF21000CEF27D
:1004800000000068C003002801D4FFE7F5E74EF242
:100490001001CEF20001086820F0010008607047EA
:1004A0004EF20861C4F20F01086840F020000860B5
:1004B000FFE74EF20860C4F20F00006800F0200071
:1004C000202801D0FFE7F4E745F22851C4F20201E9
:1004D000086820F00E00086045F22C51C4F20201B9
:1004E00008684FF6F0729043086045F20041C4F28C
:1004F0000201086840F00E00086045F22041C4F295
:100500000201086820F00E00086045F21C51C4F298
:100510000201086840F00E000860704780B582B0A4
:1005200001904EF20811C4F20F01086840F0020079
:100530000860FFE74EF20860C4F20F00006800F0A8
:100540000200022801D0FFE7F4E7019840F26801B9
:10055000C2F20001086040F26001C2F200010A68C4
:1005600047F20010C0F20200801A086045F22851DC
:10057000C4F20001086820F0FC00086045F22C512C
:10058000C4F200010868C0B2086045F20041C4F23C
:100590000001086840F0FC00086045F22041C4F208
:1005A0000001086820F0FC00086045F21C51C4F20C
:1005B0000001086840F0FC00086000F0EBF802B0B1
:1005C00080BD00004EF20861C4F20F01086840F0DF
:1005D00002000860FFE74EF20860C4F20F000068F6
:1005E00000F00200022801D0FFE7F4E745F20041E5
:1005F000C4F20001086840F00300086045F22041A1
:10060000C4F20001086820F00300086045F2285198
:10061000C4F20001086820F00300086045F21C5194
:10062000C4F20001086840F0030008607047000051
:100630004EF20861C4F20F01086840F01000086033
:10064000FFE74EF20860C4F20F00006800F01000EF
:10065000102801D0FFE7F4E744F20041C4F20201A0
:10066000086820F00300086044F22041C4F202014F
:10067000086820F00300086044F22851C4F2020127
:10068000086820F00300086044F21C51C4F2020123
:10069000086840F0030008607047000080B586B02D
:1006A00045F20C01C4F200010391086820F0030038
:1006B0000860022000F080F80399086840F0030009
:1006C000086044F20041C4F202010191086840F060
:1006D0000300086044F20C01C4F2020102910868B0
:1006E00040F0030008600A20049000F079F80199B6
:1006F000086820F0030008604FF47A7000F070F88A
:100700000299039A04980B68032199438DF81710F6
:10071000116821F00301116000F04EF89DF81700F8
:1007200006B080BD80B5FFF74DFFFFF781FF80BDAC
:1007300045F20030C4F20000006840F26D01C2F2E0
:100740000001097808420CD0FFE740F26800C2F2CD
:100750000000006801384EF21401CEF2000108607A
:100760000BE040F26000C2F20000006801384EF277
:100770001401CEF200010860FFE740F26D00C2F202
:100780000000027845F20031C4F2000108685040D0
:10079000086070474EF21001CEF2000100200860A0
:1007A0004EF62052CEF200021068022363F35F700F
:1007B000106006200860704780B582B0019000206C
:1007C0000090FFE700980199884207D2FFE7FFF702
:1007D00015FEFFE7009801300090F3E702B080BDFE
:1007E00080B582B0019000200090FFE70098019949
:1007F000884207D2FFE7FFF72BFEFFE700980130A2
:100800000090F3E702B080BD80B588B0002005906D
:10081000079043F68000C0F20100FFF77FFEFFF76C
:10082000DDFDFFF73DFEFFF77DFF45F23801C4F225
:10083000020104910E200860FFF7D0FD0499022008
:100840000860FFF7CBFD05988DF81B00FFF726FF2A
:100850000146059840F26402C2F20002117040F2B3
:100860006C01C2F200010870FFE740F26C00C2F2B6
:1008700000000390017840F6BC00C0F20000019037
:1008800010F8310045F23801C4F202010860FFF7A8
:1008900005FF40F26401C2F2000102910870FFF707
:1008A0009DFD0198029A03990B7800EBC300127822
:1008B000104400790870FFF791FDD6E702000000B0
:1008C000000102030800020000010203040003000B
:1008D000000102030E00000000010203EC0800000A
:0C08E0000000002070040000EC0200008A
:040000050000026D88
:00000001FF
